:100000000C945C000C9479000C9479000C947900A9
:100010000C9479000C9479000C9479000C9479007C
:100020000C9479000C9479000C9479000C9479006C
:100030000C9479000C9479000C9479000C9479005C
:100040000C94DF000C9479000C9479000C947900E6
:100050000C9479000C9479000C9479000C9479003C
:100060000C9479000C947900000000080002010053
:100070000003040700000000000000000000000072
:10008000250028002B0000000000240027002A0083
:10009000040404040404040402020202020203032E
:1000A0000303030301020408102040800102040836
:1000B000102001020408102011241FBECFEFD8E049
:1000C000DEBFCDBF11E0A0E0B1E0E8EAF4E002C09D
:1000D00005900D92A030B107D9F721E0A0E0B1E082
:1000E00001C01D92AB30B207E1F70E9429010C94C8
:1000F00052020C940000EDEAF0E02491E9E9F0E00E
:100100008491882399F090E0880F991FFC01EA57A9
:10011000FF4FA591B491FC01E458FF4F8591949154
:100120008FB7F894EC91E22BEC938FBF0895E1E741
:10013000F0E02491EDEAF0E09491E9E9F0E0E49157
:10014000EE2309F43BC0222339F1233091F038F437
:100150002130A9F0223001F524B52F7D12C02730BF
:1001600091F02830A1F02430B9F4209180002F7D47
:1001700003C0209180002F77209380000DC024B50C
:100180002F7724BD09C02091B0002F7703C02091A4
:10019000B0002F7D2093B000F0E0EE0FFF1FE45879
:1001A000FF4FA591B4912FB7F894EC91811103C042
:1001B00090959E2301C09E2B9C932FBF08951F9264
:1001C0000F920FB60F9211242F933F938F939F930B
:1001D000AF93BF938091070190910801A09109010D
:1001E000B0910A013091060123E0230F2D3720F44E
:1001F0000196A11DB11D05C026E8230F0296A11D81
:10020000B11D209306018093070190930801A093EC
:100210000901B0930A018091020190910301A0911C
:100220000401B09105010196A11DB11D8093020149
:1002300090930301A0930401B0930501BF91AF9186
:100240009F918F913F912F910F900FBE0F901F9014
:100250001895789484B5826084BD84B5816084BD2E
:1002600085B5826085BD85B5816085BD80916E0054
:10027000816080936E001092810080918100826085
:1002800080938100809181008160809381008091C2
:1002900080008160809380008091B10084608093B1
:1002A000B1008091B00081608093B00080917A00AD
:1002B000846080937A0080917A00826080937A00D3
:1002C00080917A00816080937A0080917A008068C2
:1002D00080937A001092C1000E947B0084E8882EEF
:1002E00083E0982EA12CB12C01E710E090E0E92EDC
:1002F00090E0F92E20E4D22ED0927C0080917A00FA
:10030000806480937A0080917A0086FDFCCFA09172
:10031000780080917900B0E0B82B2FEF30E00E9498
:100320004B02A50194010E94FB0157FD08C0E901A1
:100330002F3F310531F02CF0CFEFD0E002C0C0E00C
:10034000D0E0D0930101C09300010E947B00209770
:1003500011F480E004C0CF3FD10521F481E00E9478
:10036000970042C0F80184918330F9F048F481305D
:10037000B9F08230A1F584B5806284BDC8BD34C0B7
:100380008730E9F0883019F1843049F58091800098
:10039000806280938000D0938B00C0938A0024C039
:1003A00084B5806884BDC7BD1FC08091800080680F
:1003B00080938000D0938900C093880015C08091FD
:1003C000B00080688093B000C093B3000DC08091EE
:1003D000B00080628093B000C093B40005C0C03804
:1003E000D1050CF0BBCFB5CFE114F10409F484CFF3
:1003F0000E94000081CF052E97FB1EF400940E94FE
:10040000120257FD07D00E941A0207FC03D04EF4D7
:100410000C94120250954095309521953F4F4F4FC7
:100420005F4F089590958095709561957F4F8F4FA0
:100430009F4F0895A1E21A2EAA1BBB1BFD010DC000
:10044000AA1FBB1FEE1FFF1FA217B307E407F50784
:1004500020F0A21BB30BE40BF50B661F771F881F60
:10046000991F1A9469F760957095809590959B01F6
:10047000AC01BD01CF010895A29FB001B39FC0019F
:10048000A39F700D811D1124911DB29F700D811DC0
:100490001124911D08950E943C02B7FF0895821B0C
:0804A000930B0895F894FFCFBF
:00000001FF
