:100000000C9462000C948A000C948A000C948A0070
:100010000C948A000C948A000C948A000C948A0038
:100020000C948A000C948A000C948A000C948A0028
:100030000C948A000C948A000C948A000C948A0018
:100040000C94B2020C948A000C9480020C945A0214
:100050000C948A000C948A000C948A000C948A00F8
:100060000C948A000C948A000000000024002700F1
:100070002A0000000000250028002B0000000008D6
:10008000000201000003040700000000000000005F
:1000900000000000230026002900040404040404D6
:1000A0000404020202020202030303030303010227
:1000B00004081020408001020408102001020408F6
:1000C0001020AD0411241FBECFEFD8E0DEBFCDBF9E
:1000D00011E0A0E0B1E0E6ECFCE002C005900D927A
:1000E000A032B107D9F721E0A0E2B1E001C01D9232
:1000F000AD3CB207E1F710E0C2E6D0E004C02197C2
:10010000FE010E945606C136D107C9F70E9441037D
:100110000C9461060C940000E0E3F1E0A089B18941
:1001200082E08C93A485B5851C92A685B7858FEC5B
:100130008C93108EA489B58986E08C93A289B389AB
:100140008C9180618C93A289B3898C9188608C9307
:10015000A289B3898C9180688C930288F389E02D01
:1001600080818F7D80830895CF92DF92EF92FF92FE
:100170000F931F93CF93DF936C017A018B01C0E043
:10018000D0E0CE15DF0589F0D8016D918D01D60143
:10019000ED91FC910190F081E02DC6010995892B2C
:1001A00011F47E0102C02196ECCFC701DF91CF91FF
:1001B0001F910F91FF90EF90DF90CF9008950895D9
:1001C00080E090E00895FC01538D448D252F30E0B0
:1001D000842F90E0821B930B541710F0CF96089554
:1001E00001970895FC01918D828D981761F0828DA1
:1001F000DF01A80FB11D5D968C91928D9F5F9F735B
:10020000928F90E008958FEF9FEF0895FC01918DFC
:10021000828D981731F0828DE80FF11D858D90E069
:1002200008958FEF9FEF0895FC01918D228D892F06
:1002300090E0805C9F4F821B91098F7399270895EE
:1002400080E391E00E94140121E0892B09F420E071
:10025000822F0895FC01848DDF01A80FB11DA35AE0
:10026000BF4F2C91848D90E001968F739927848FD6
:10027000A689B7892C93A089B1898C9180648C93CD
:10028000938D848D981306C00288F389E02D8081B8
:100290008F7D80830895EF92FF920F931F93CF93EA
:1002A000DF93EC0181E0888F9B8D8C8D981305C0C6
:1002B000E889F989808185FD24C0F62E0B8D10E038
:1002C0000F5F1F4F0F731127E02E8C8DE8120CC0AB
:1002D0000FB607FCFACFE889F989808185FFF5CF51
:1002E000CE010E942A01F1CF8B8DFE01E80FF11D96
:1002F000E35AFF4FF0820B8FEA89FB89808180628D
:1003000007C0EE89FF896083E889F989808180646C
:10031000808381E090E0DF91CF911F910F91FF905A
:10032000EF900895CF93DF93EC01888D8823C9F077
:10033000EA89FB89808185FD05C0A889B9898C91EE
:1003400086FD0FC00FB607FCF5CF808185FFF2CF89
:10035000A889B9898C9185FFEDCFCE010E942A0131
:10036000E7CFDF91CF91089580E090E0892B29F0CD
:100370000E94200181110C940000089590E0FC017E
:10038000E458FF4F3491FC01E255FF4F2491FC01EA
:10039000E656FF4FE491EE2309F43BC0332339F1D5
:1003A000333091F038F43130A9F0323001F584B5B2
:1003B0008F7D12C0373091F03830A1F03430B9F46D
:1003C000809180008F7D03C0809180008F77809323
:1003D00080000DC084B58F7784BD09C08091B000C6
:1003E0008F7703C08091B0008F7D8093B000F0E0E4
:1003F000EE0FFF1FEE58FF4FA591B4918FB7F89401
:10040000EC91611103C020952E2301C02E2B2C935B
:100410008FBF0895CF93DF9390E0FC01E255FF4F2B
:100420002491FC01E656FF4F8491882361F190E00E
:10043000880F991FFC01E859FF4FC591D491FC0129
:10044000EE58FF4FA591B491611109C09FB7F89480
:100450008881209582238883EC912E230BC0623003
:1004600061F49FB7F8943881822F80958323888325
:10047000EC912E2B2C939FBF06C08FB7F894E88188
:100480002E2B28838FBFDF91CF910895009769F0BD
:10049000FC0101900020E9F73197AF01481B590B8F
:1004A000BC0180E391E00C94B40080E090E00895FA
:1004B0000E945C061F920F920FB60F9211242F9389
:1004C0003F934F935F936F937F938F939F93AF93DC
:1004D000BF93EF93FF9380E391E00E942A01FF9185
:1004E000EF91BF91AF919F918F917F916F915F91AC
:1004F0004F913F912F910F900FBE0F901F90189525
:100500001F920F920FB60F9211242F938F939F93E8
:10051000EF93FF93E0914001F09141018081E091E0
:100520004601F091470182FD12C0908180914901FE
:100530008F5F8F7320914A01821751F0E09149013A
:10054000F0E0E05DFE4F958F8093490101C080810E
:10055000FF91EF919F918F912F910F900FBE0F9070
:100560001F9018951F920F920FB60F9211242F9380
:100570003F938F939F93AF93BF9380912501909169
:100580002601A0912701B09128013091240123E098
:10059000230F2D3720F40196A11DB11D05C026E8BB
:1005A000230F0296A11DB11D2093240180932501E4
:1005B00090932601A0932701B093280180912001F8
:1005C00090912101A0912201B09123010196A11DDA
:1005D000B11D8093200190932101A0932201B0933B
:1005E0002301BF91AF919F918F913F912F910F90D8
:1005F0000FBE0F901F901895CF92DF92EF92FF924F
:100600000F931F93E82FF92F05C0015011092109FD
:10061000310961F1908196239417B9F305C0015017
:1006200011092109310911F1908196239413F7CF13
:10063000C12CD12CE12CF12C0AC08FEFC81AD80A9A
:10064000E80AF80A0C151D052E053F0579F0808192
:100650008623841791F36C2D7D2D8E2D9F2D1F9158
:100660000F91FF90EF90DF90CF90089560E070E0E1
:1006700080E090E01F910F91FF90EF90DF90CF907E
:100680000895CF93DF93CDB7DEB7A1970FB6F89457
:10069000DEBF0FBECDBF789484B5826084BD84B5C3
:1006A000816084BD85B5826085BD85B5816085BD6D
:1006B00080916E00816080936E0010928100809125
:1006C00081008260809381008091810081608093AD
:1006D0008100809180008160809380008091B100D2
:1006E00084608093B1008091B00081608093B000FD
:1006F00080917A00846080937A0080917A00826091
:1007000080937A0080917A00816080937A00809152
:100710007A00806880937A001092C1000E948C0059
:1007200061E088E00E940A0261E089E00E940A021A
:1007300061E08AE00E940A0261E08BE00E940A0206
:1007400061E083E00E940A0260E086E00E940A0203
:100750000E948C0093E0E92EF12C23E2C22ED12CD2
:1007600034EB232E30E0332E4AE0442E512C612C02
:10077000712C60E083E00E94BE01C7010197F1F790
:1007800061E083E00E94BE01C6010197F1F760E0DD
:1007900083E00E94BE01F1016491E0EAF0E08491FF
:1007A000E82FF0E0EE0FFF1FE057FF4F8591949187
:1007B00000E412E42FE030E0462F0E94FC026115B5
:1007C00071058105910549F0DC01CB010196A11D60
:1007D000B11DBC01CD019F7003C060E070E0CB0192
:1007E00060932C0170932D0180932E0190932F0123
:1007F0000E94170526E933E44BE05DE30E949F0564
:1008000020E030E040E05FE30E949F050E94DF04AB
:1008100070932B0160932A0182E191E00E944602CD
:1008200020912A0130912B014901330FAA08BB08FE
:10083000B7FE26C0E0913001F09131010190F081C6
:10084000E02D6DE280E391E0099522273327A9018D
:10085000281939094A095B0919A28E010F5D1F4F3A
:10086000CA01B901A30192010E943406605DF8013A
:1008700062938F01211531054105510589F715C096
:10088000A501940119A28E010F5D1F4FCA01B90184
:10089000A30192010E943406605DF80162938F010A
:1008A000211531054105510589F7C8010E9446020D
:1008B0008DE191E00E94460260912A0170912B0126
:1008C000072E000C880B990B0E9417052AE939E9BD
:1008D00049E15EE30E94DA04181664F480E391E0D3
:1008E0000E94F20080932901863411F461E017C060
:1008F000823471F460E088E00E94BE0161E089E02A
:100900000E94BE0160E08AE00E94BE0161E01FC05B
:100910008C3411F461E00FC0823551F460E088E05E
:100920000E94BE0160E089E00E94BE0161E00BC050
:10093000883581F460E088E00E94BE0160E089E0D3
:100940000E94BE0160E08AE00E94BE0160E08BE090
:100950000E94BE010E94B4010CCFE0E3F1E01382DB
:10096000128288EE93E0A0E0B0E084839583A683B2
:10097000B78384E091E09183808385EC90E0958754
:10098000848784EC90E09787868780EC90E0918B59
:10099000808B81EC90E0938B828B82EC90E0958B46
:1009A000848B86EC90E0978B868B118E128E138E43
:1009B000148E08950E94520508F481E008950E9463
:1009C000E6046894B1110C94990508950E947E057F
:1009D00088F09F5798F0B92F9927B751B0F0E1F000
:1009E000660F771F881F991F1AF0BA95C9F714C0B0
:1009F000B13091F00E949805B1E008950C949805EB
:100A0000672F782F8827B85F39F0B93FCCF38695E8
:100A100077956795B395D9F73EF490958095709545
:100A200061957F4F8F4F9F4F0895E89409C097FBC2
:100A30003EF490958095709561957F4F8F4F9F4FB5
:100A40009923A9F0F92F96E9BB279395F6958795F9
:100A500077956795B795F111F8CFFAF4BB0F11F4BC
:100A600060FF1BC06F5F7F4F8F4F9F4F16C0882363
:100A700011F096E911C0772321F09EE8872F762F99
:100A800005C0662371F096E8862F70E060E02AF0DA
:100A90009A95660F771F881FDAF7880F96958795C6
:100AA00097F90895990F0008550FAA0BE0E8FEEF9B
:100AB00016161706E807F907C0F012161306E40722
:100AC000F50798F0621B730B840B950B39F40A261B
:100AD00061F0232B242B252B21F408950A2609F4F9
:100AE000A140A6958FEF811D811D089557FD905857
:100AF000440F551F59F05F3F71F04795880F97FBE2
:100B0000991F61F09F3F79F087950895121613069B
:100B10001406551FF2CF4695F1DF08C016161706CA
:100B20001806991FF1CF86957105610508940895FF
:100B3000E894BB2766277727CB0197F908950E9491
:100B4000B2050C9423060E94150638F00E941C067C
:100B500020F0952311F00C940C060C94120611242D
:100B60000C9499050E94760570F3959FC1F3950F3B
:100B700050E0551F629FF001729FBB27F00DB11D21
:100B8000639FAA27F00DB11DAA1F649F6627B00DB1
:100B9000A11D661F829F2227B00DA11D621F739F9A
:100BA000B00DA11D621F839FA00D611D221F749FA8
:100BB0003327A00D611D231F849F600D211D822FEF
:100BC000762F6A2F11249F5750409AF0F1F0882316
:100BD0004AF0EE0FFF1FBB1F661F771F881F915043
:100BE0005040A9F79E3F510580F00C940C060C94E0
:100BF00099055F3FE4F3983ED4F386957795679522
:100C0000B795F795E7959F5FC1F7FE2B880F911D6C
:100C10009695879597F9089597F99F6780E870E012
:100C200060E008959FEF80EC089500240A94161662
:100C3000170618060906089500240A9412161306CA
:100C4000140605060895092E0394000C11F4882358
:100C500052F0BB0F40F4BF2B11F460FF04C06F5F74
:100C60007F4F8F4F9F4F0895A1E21A2EAA1BBB1BE7
:100C7000FD010DC0AA1FBB1FEE1FFF1FA217B30768
:100C8000E407F50720F0A21BB30BE40BF50B661F7E
:100C9000771F881F991F1A9469F760957095809542
:100CA00090959B01AC01BD01CF010895EE0FFF1F90
:100CB0000590F491E02D099481E090E0F8940C9473
:060CC0006106F894FFCF6D
:100CC600000000004B01B400E30092011401F200A1
:100CD600060144697374616E63653A20000D0A006B
:107E0000112484B714BE81FFF0D085E080938100F7
:107E100082E08093C00088E18093C10086E0809377
:107E2000C20080E18093C4008EE0C9D0259A86E02C
:107E300020E33CEF91E0309385002093840096BBD3
:107E4000B09BFECF1D9AA8958150A9F7CC24DD24C4
:107E500088248394B5E0AB2EA1E19A2EF3E0BF2EE7
:107E6000A2D0813461F49FD0082FAFD0023811F036
:107E7000013811F484E001C083E08DD089C08234E0
:107E800011F484E103C0853419F485E0A6D080C0E4
:107E9000853579F488D0E82EFF2485D0082F10E0AE
:107EA000102F00270E291F29000F111F8ED06801E7
:107EB0006FC0863521F484E090D080E0DECF843638
:107EC00009F040C070D06FD0082F6DD080E0C81688
:107ED00080E7D80618F4F601B7BEE895C0E0D1E017
:107EE00062D089930C17E1F7F0E0CF16F0E7DF06D8
:107EF00018F0F601B7BEE89568D007B600FCFDCFD4
:107F0000A601A0E0B1E02C9130E011968C91119780
:107F100090E0982F8827822B932B1296FA010C0160
:107F200087BEE89511244E5F5F4FF1E0A038BF0790
:107F300051F7F601A7BEE89507B600FCFDCF97BE46
:107F4000E89526C08437B1F42ED02DD0F82E2BD052
:107F50003CD0F601EF2C8F010F5F1F4F84911BD097
:107F6000EA94F801C1F70894C11CD11CFA94CF0C13
:107F7000D11C0EC0853739F428D08EE10CD085E9AC
:107F80000AD08FE07ACF813511F488E018D01DD067
:107F900080E101D065CF982F8091C00085FFFCCF94
:107FA0009093C60008958091C00087FFFCCF809118
:107FB000C00084FD01C0A8958091C6000895E0E648
:107FC000F0E098E1908380830895EDDF803219F02E
:107FD00088E0F5DFFFCF84E1DECF1F93182FE3DFCA
:107FE0001150E9F7F2DF1F91089580E0E8DFEE27F6
:047FF000FF270994CA
:027FFE00040479
:0400000300007E007B
:00000001FF
