:100000000C945D000C9485000C9485000C94850084
:100010000C9485000C9485000C9485000C9485004C
:100020000C9485000C9485000C9485000C9485003C
:100030000C9485000C9485000C9485000C9485002C
:100040000C9459030C9485000C9427030C94010321
:100050000C9485000C9485000C9485000C9485000C
:100060000C9485000C94850000000008000201003B
:100070000003040700000000000000000000000072
:10008000250028002B0000000000240027002A0083
:10009000040404040404040402020202020203032E
:1000A0000303030301020408102040800102040836
:1000B0001020010204081020AD0411241FBECFEF50
:1000C000D8E0DEBFCDBF11E0A0E0B1E0E2E1FAE0B0
:1000D00002C005900D92AE32B107D9F721E0AEE231
:1000E000B1E001C01D92A43DB207E1F710E0CDE5FB
:1000F000D0E004C02197FE010E94FC04CC35D1075A
:10010000C9F70E94A3030C9407050C94000090E02B
:10011000FC01EC55FF4F2491FC01E057FF4F849107
:10012000882399F090E0880F991FFC01EA57FF4F50
:10013000A591B491FC01E458FF4F859194918FB73C
:10014000F894EC91E22BEC938FBF0895CF92DF925D
:10015000EF92FF920F931F93CF93DF936C017A017D
:100160008B01C0E0D0E0CE15DF0589F0D8016D919C
:100170008D01D601ED91FC910190F081E02DC60139
:100180000995892B11F47E0102C02196ECCFC7019D
:10019000DF91CF911F910F91FF90EF90DF90CF9063
:1001A0000895089580E090E00895FC01538D448DFA
:1001B000252F30E0842F90E0821B930B541710F012
:1001C000CF96089501970895FC01918D828D98171F
:1001D00061F0828DDF01A80FB11D5D968C91928D2B
:1001E0009F5F9F73928F90E008958FEF9FEF089528
:1001F000FC01918D828D981731F0828DE80FF11DF1
:10020000858D90E008958FEF9FEF0895FC01918D0B
:10021000228D892F90E0805C9F4F821B91098F7304
:100220009927089587E391E00E94060121E0892B38
:1002300009F420E0822F0895FC01848DDF01A80FCE
:10024000B11DA35ABF4F2C91848D90E001968F73FE
:100250009927848FA689B7892C93A089B1898C911D
:1002600080648C93938D848D981306C00288F389E3
:10027000E02D80818F7D80830895EF92FF920F9310
:100280001F93CF93DF93EC0181E0888F9B8D8C8D42
:10029000981305C0E889F989808185FD24C0F62E70
:1002A0000B8D10E00F5F1F4F0F731127E02E8C8D09
:1002B000E8120CC00FB607FCFACFE889F9898081F3
:1002C00085FFF5CFCE010E941C01F1CF8B8DFE0181
:1002D000E80FF11DE35AFF4FF0820B8FEA89FB898B
:1002E0008081806207C0EE89FF896083E889F9898F
:1002F00080818064808381E090E0DF91CF911F91C5
:100300000F91FF90EF900895CF93DF93EC01888DCC
:100310008823C9F0EA89FB89808185FD05C0A88909
:10032000B9898C9186FD0FC00FB607FCF5CF80818F
:1003300085FFF2CFA889B9898C9185FFEDCFCE01D9
:100340000E941C01E7CFDF91CF91089580E090E0FB
:10035000892B29F00E94120181110C94000008954C
:1003600090E0FC01E859FF4F3491FC01EC55FF4F40
:100370002491FC01E057FF4FE491EE2309F43BC0C8
:10038000332339F1333091F038F43130A9F0323081
:1003900001F584B58F7D12C0373091F03830A1F06F
:1003A0003430B9F4809180008F7D03C0809180004B
:1003B0008F77809380000DC084B58F7784BD09C08E
:1003C0008091B0008F7703C08091B0008F7D8093C3
:1003D000B000F0E0EE0FFF1FE458FF4FA591B4917D
:1003E0008FB7F894EC91611103C020952E2301C0C2
:1003F0002E2B2C938FBF08958E3008F08E5087706F
:10040000806480937C0080917A00806480937A007D
:1004100080917A0086FDFCCF809178002091790050
:1004200090E0922B08953FB7F8948091330190911A
:100430003401A0913501B091360126B5A89B05C0C5
:100440002F3F19F00196A11DB11D3FBFBA2FA92F53
:10045000982F8827820F911DA11DB11DBC01CD01D0
:1004600042E0660F771F881F991F4A95D1F70895BC
:100470008F929F92AF92BF92CF92DF92EF92FF92B4
:100480006B017C010E9413024B015C01C114D10479
:10049000E104F104F1F00E941302DC01CB018819A0
:1004A0009909AA09BB09883E9340A105B10570F3DB
:1004B00021E0C21AD108E108F10888EE880E83E035
:1004C000981EA11CB11CC114D104E104F10419F758
:1004D000DDCFFF90EF90DF90CF90BF90AF909F90D7
:1004E0008F900895009769F0FC0101900020E9F7D2
:1004F0003197AF01481B590BBC0187E391E00C9485
:10050000A60080E090E008958F929F92AF92BF92F4
:10051000CF92DF92EF92FF920F931F93CF93DF93CF
:10052000CDB7DEB7A1970FB6F894DEBF0FBECDBF33
:100530006C01990FEE08FF08F7FE31C0E09137011A
:10054000F09138010190F081E02D6DE287E391E0B8
:1005500009958C0122273327A9012C193D094E0941
:100560005F0919A2CE0181967C019AE0892E912C17
:10057000A12CB12CCA01B901A50194010E94DA0491
:10058000605DF70162937F01211531054105510539
:1005900089F7CF010E947202800F911F1DC0A70131
:1005A000960119A28E010F5D1F4F8AE0C82ED12C33
:1005B000E12CF12CCA01B901A70196010E94DA04CD
:1005C000605DF80162938F012115310541055105E8
:1005D00089F7CF010E947202A1960FB6F894DEBF90
:1005E0000FBECDBFDF91CF911F910F91FF90EF9084
:1005F000DF90CF90BF90AF909F908F9008950E9412
:1006000002051F920F920FB60F9211242F933F9362
:100610004F935F936F937F938F939F93AF93BF930A
:10062000EF93FF9387E391E00E941C01FF91EF910C
:10063000BF91AF919F918F917F916F915F914F91FA
:100640003F912F910F900FBE0F901F9018951F9202
:100650000F920FB60F9211242F938F939F93EF93C6
:10066000FF93E0914701F09148018081E0914D01B5
:10067000F0914E0182FD12C09081809150018F5FF8
:100680008F7320915101821751F0E0915001F0E0F9
:10069000E95CFE4F958F8093500101C08081FF91EE
:1006A000EF919F918F912F910F900FBE0F901F9000
:1006B00018951F920F920FB60F9211242F933F930C
:1006C0008F939F93AF93BF9380912F0190913001AF
:1006D000A0913101B091320130912E0123E0230F1E
:1006E0002D3720F40196A11DB11D05C026E8230F6A
:1006F0000296A11DB11D20932E0180932F0190938E
:100700003001A0933101B093320180913301909177
:100710003401A0913501B09136010196A11DB11DA2
:100720008093330190933401A0933501B093360147
:10073000BF91AF919F918F913F912F910F900FBEDD
:100740000F901F901895789484B5826084BD84B50D
:10075000816084BD85B5826085BD85B5816085BDBC
:1007600080916E00816080936E0010928100809174
:1007700081008260809381008091810081608093FC
:100780008100809180008160809380008091B10021
:1007900084608093B1008091B00081608093B0004C
:1007A00080917A00846080937A0080917A008260E0
:1007B00080937A0080917A00816080937A008091A2
:1007C0007A00806880937A001092C10088E00E94CD
:1007D000870089E00E9487008AE00E9487008BE002
:1007E0000E948700E0914701F091480182E08083F8
:1007F000E0914301F09144011082E0914501F091B4
:1008000046018FEC808310924F01E0914B01F091F3
:100810004C0186E08083E0914901F0914A0180819A
:1008200080618083E0914901F0914A018081886074
:100830008083E0914901F0914A0180818068808342
:10084000E0914901F0914A0180818F7D808382E1AE
:1008500091E00E94720288E291E00E94720268EECA
:1008600073E080E090E00E94380281E10E94FC0188
:100870000E9484028BE291E00E94720282E10E9457
:10088000FC010E9484028BE291E00E94720283E1EB
:100890000E94FC010E94840288E291E00E947202A0
:1008A00082E10E94FC018032934034F460E088E0F1
:1008B0000E94B00161E01BC083E10E94FC01803214
:1008C000934054F461E088E00E94B00160E089E068
:1008D0000E94B00160E00FC081E10E94FC01803203
:1008E000934084F460E088E00E94B00160E089E019
:1008F0000E94B00161E08AE00E94B00160E08BE0FC
:100900000E94B00182E10E94FC018132934064F0B8
:1009100083E10E94FC018132934034F081E10E9426
:10092000FC018132934044F460E070E0CB010E940E
:1009300038020E94A60199CF61E088E00E94B001D0
:1009400060E089E00E94B00161E08AE00E94B001AD
:1009500060E08BE00E94B001E7CFE7E3F1E01382B3
:10096000128288EE93E0A0E0B0E084839583A683B2
:10097000B78384E091E09183808385EC90E0958754
:10098000848784EC90E09787868780EC90E0918B59
:10099000808B81EC90E0938B828B82EC90E0958B46
:1009A000848B86EC90E0978B868B118E128E138E43
:1009B000148E0895A1E21A2EAA1BBB1BFD010DC0C7
:1009C000AA1FBB1FEE1FFF1FA217B307E407F507FF
:1009D00020F0A21BB30BE40BF50B661F771F881FDB
:1009E000991F1A9469F760957095809590959B0171
:1009F000AC01BD01CF010895EE0FFF1F0590F491EA
:100A0000E02D099481E090E0F8940C940705F894A7
:020A1000FFCF16
:100A1200000000003D01A600D50084010601E400AB
:100A2200F80049522053656E736F722052656164FB
:0E0A3200696E67733A3A20000D0A0009000051
:00000001FF
