:100000000C9463000C948B000C948B000C948B006C
:100010000C948B000C948B000C948B000C948B0034
:100020000C948B000C948B000C948B000C948B0024
:100030000C948B000C948B000C948B000C948B0014
:100040000C9472040C948B000C94F0070C9422080E
:100050000C948B000C948B000C948B000C948B00F4
:100060000C948B000C948B0000000008000201002F
:100070000003040700000000000000000102040863
:100080001020408001020408102001020408102002
:10009000040404040404040402020202020203032E
:1000A00003030303000000002300260029000000D2
:1000B0000000250028002B0000000000240027007D
:1000C0002A00A802520811241FBECFEFD8E0DEBFDD
:1000D000CDBF11E0A0E0B1E0E0E0F6E102C00590A4
:1000E0000D92A23AB107D9F722E0A2EAB1E001C02D
:1000F0001D92A935B207E1F710E0C6ECD0E004C0CC
:100100002297FE010E94FA0AC23CD107C9F70E9459
:10011000A4090C94FE0A0C940000CF92DF92EF9297
:10012000FF920F931F93E82FF92F05C0015011097B
:100130002109310961F1908196239417B9F305C023
:10014000015011092109310911F19081962394136D
:10015000F7CFC12CD12CE12CF12C0AC08FEFC81A9B
:10016000D80AE80AF80A0C151D052E053F0579F096
:1001700080818623841791F36C2D7D2D8E2D9F2DEC
:100180001F910F91FF90EF90DF90CF90089560E066
:1001900070E080E090E01F910F91FF90EF90DF9072
:1001A000CF90089526E040E855E260E070E08CEBE7
:1001B00091E00E948E0761E080910A010E94100682
:1001C00061E0809108010E94100660E081E10E94D8
:1001D000100660E082E10E94100660E083E10E9468
:1001E000100661E088E00E94100661E089E00E944C
:1001F000100661E08AE00E94100661E08BE00E9438
:10020000100661E0809110010E94100661E082E01A
:100210000E94100660E086E00C94100660910601D2
:100220007091070180910A010E9488056091060182
:1002300070910701809108010C94880561E088E0C5
:100240000E94490660E089E00E94490661E08AE078
:100250000E94490660E08BE00C94490660E088E06B
:100260000E94490661E089E00E94490660E08AE058
:100270000E94490661E08BE00C94490661E088E049
:100280000E94490660E089E00E94490660E08AE039
:100290000E94490661E08BE00C94490660E088E02A
:1002A0000E94490661E089E00E94490661E08AE017
:1002B0000E94490660E08BE00C94490660E088E00B
:1002C0000E94490660E089E00E94490660E08AE0F9
:1002D0000E94490660E08BE00C9449060E942E01C2
:1002E00064EF71E080E090E00E94EB040E943E0128
:1002F0006CE271E080E090E00E94EB048091A70145
:100300009091A8014497A4F40E945E010E941E01EE
:1003100068EE73E080E090E00E94EB040E944E01E2
:100320006CE271E080E090E00E94EB040C945E01CE
:100330000895CF93DF936091AF017091B0018091E8
:100340000201909103012091B1013091B2014091DD
:10035000AD015091AE018617970744F5281739076C
:1003600024F44817590714F506C082179307F4F4CC
:1003700084179507DCF46091060170910701809164
:100380000A010E9488056091060170910701809121
:1003900008010E94880581E090E090930F0180930E
:1003A0000E010E941E0163E171E027C082179307CE
:1003B00054F56817790739F14817590724F5609102
:1003C00004017091050180910A010E9488056091E5
:1003D000040170910501809108010E94880582E066
:1003E00090E090930F0180930E0190930D01809304
:1003F0000C010E943E016AE171E08CEB91E0DF911B
:10040000CF910C94E008841795072CF568177907AD
:1004100011F128173907FCF460910401709105016E
:1004200080910A010E948805609104017091050184
:10043000809108010E948805C3E0D0E0D0930F01AD
:10044000C0930E010E944E01D0930D01C0930C0188
:1004500063E271E0D2CF80910E0190910F0101977C
:1004600051F5609104017091050180910A010E948B
:1004700088056091040170910501809108010E9436
:10048000880580910C0190910D018230910519F43D
:100490000E943E0104C0039711F40E944E016FE2D6
:1004A00071E08CEB91E00E94E00861E070E080E098
:1004B00090E00E94EB0480910E0190910F01029751
:1004C000F1F4609104017091050180910A010E948C
:1004D00088056091040170910501809108010E94D6
:1004E00088050E943E016EE371E08CEB91E00E9472
:1004F000E00861E070E080E090E00E94EB04809111
:100500000E0190910F01039701F560910401709124
:10051000050180910A010E94880560910401709193
:100520000501809108010E9488050E944E0162E544
:1005300071E08CEB91E00E94E00861E070E080E007
:1005400090E0DF91CF910C94EB04DF91CF9108956F
:100550000E94BC046093A2017093A3018093A40144
:100560009093A50108950F931F9360E082E00E948D
:10057000490682E090E00E94250561E082E00E9449
:1005800049068AE090E00E94250560E082E00E9432
:10059000490620E432E44FE050E061E086E00E944A
:1005A0007F066093A9017093AA018093AB01909399
:1005B000AC010E94E70926E933E44BE05DE30E94C9
:1005C000730A20E030E040E05FE30E94730A0E947B
:1005D000B4097093A8016093A70165E671E08CEB04
:1005E00091E00E94D3086091A7017091A8014AE0B0
:1005F00050E08CEB91E00E948B0960E0809110014B
:100600000E94490681E10E946B059093AE018093A0
:10061000AD0182E10E946B0508EE13E09801281BF2
:10062000390B3093B0012093AF0183E10E946B0539
:100630009093B2018093B10160E771E08CEB91E09F
:100640000E94D30881E10E946B054AE050E0BC01A2
:100650008CEB91E00E948B0964E771E08CEB91E0F8
:100660000E94D30882E10E946B05B801681B790BD8
:100670004AE050E08CEB91E00E948B0968E771E062
:100680008CEB91E00E94D30883E10E946B054AE065
:1006900050E0BC018CEB91E00E948B09609102015B
:1006A000709103014AE050E08CEB91E00E948B09CD
:1006B0008CEB91E00E94AB061816190684F48CEBC3
:1006C00091E00E94C4068093A601682F772767FDFA
:1006D000709564587E4F8CEB91E00E94E008809109
:1006E000A6018C3431F40E940E011F910F910C94DD
:1006F0004E01823531F40E940E011F910F910C942E
:100700003E01873459F464E670E080910A010E944A
:1007100088056FEF70E0809108010CC0893481F486
:1007200064E670E0809108010E9488056FEF70E038
:1007300080910A010E9488051F910F910C941E015F
:10074000883459F464E670E080910A010E948805BB
:100750006FEF70E0809108010CC08A3481F464E688
:1007600070E0809108010E9488056FEF70E0809131
:100770000A010E9488051F910F910C942E0181336C
:1007800019F489E190E004C0823339F482E390E007
:100790009093070180930601A2C0833319F48BE480
:1007A00090E0F6CF843319F484E690E0F1CF8533FE
:1007B00019F48DE790E0ECCF863319F486E990E0E8
:1007C000E7CF873319F48FEA90E0E2CF883319F44A
:1007D00088EC90E0DDCF893319F481EE90E0D8CF3A
:1007E000813719F48FEF90E0D3CF873519F48FEF6D
:1007F00090E00EC0873719F482ED90E009C085358E
:1008000019F484EB90E004C0853739F486E990E070
:10081000909305018093040162C0883519F488EC37
:1008200090E004C0883739F484EF91E0909303019D
:100830008093020154C08634D9F50E940E010E94B3
:100840001E018091A7019091A80140970CF047C02C
:100850000E94BC040091A2011091A3012091A40167
:100860003091A501601B710B820B930B009100016D
:100870001091010120E030E06017710782079307B3
:1008800038F461E08DE00E9449060E946E01E0CFDD
:100890000E94BC046093A2017093A3018093A40101
:1008A0009093A50160E0809110010E94490613C059
:1008B000823419F40E940E015ECF863521F41F9117
:1008C0000F910C949901863731F488EC90E0909365
:1008D0000301809302011F910F910C945E011F91FF
:1008E0000F9108951F920F920FB60F9211242F931C
:1008F0003F938F939F93AF93BF938091B401909157
:10090000B501A091B601B091B7013091B30123E0D8
:10091000230F2D3720F40196A11DB11D05C026E837
:10092000230F0296A11DB11D2093B3018093B40142
:100930009093B501A093B601B093B7018091B8012F
:100940009091B901A091BA01B091BB010196A11D8E
:10095000B11D8093B8019093B901A093BA01B093EF
:10096000BB01BF91AF919F918F913F912F910F90BC
:100970000FBE0F901F9018952FB7F8946091B40197
:100980007091B5018091B6019091B7012FBF089584
:100990003FB7F8948091B8019091B901A091BA0144
:1009A000B091BB0126B5A89B05C02F3F19F0019659
:1009B000A11DB11D3FBF6627782F892F9A2F620F87
:1009C000711D811D911D42E0660F771F881F991FC1
:1009D0004A95D1F708958F929F92AF92BF92CF928E
:1009E000DF92EF92FF926B017C010E94C8044B01E1
:1009F0005C01C114D104E104F104F1F00E94B309D7
:100A00000E94C804681979098A099B09683E7340E5
:100A10008105910570F321E0C21AD108E108F108BF
:100A200088EE880E83E0981EA11CB11CC114D1046D
:100A3000E104F10429F7DDCFFF90EF90DF90CF9034
:100A4000BF90AF909F908F9008958230910538F0BD
:100A5000880F991F880F991F05970197F1F708953F
:100A6000789484B5826084BD84B5816084BD85B589
:100A7000826085BD85B5816085BDEEE6F0E0808150
:100A800081608083E1E8F0E0108280818260808371
:100A9000808181608083E0E8F0E0808181608083F4
:100AA000E1EBF0E0808184608083E0EBF0E0808126
:100AB00081608083EAE7F0E08081846080838081C8
:100AC0008260808380818160808380818068808370
:100AD0001092C10008958E3008F08E5087702091DA
:100AE000120190E4299F90011124822B80937C00B5
:100AF00080917A00806480937A0080917A0086FDEC
:100B0000FCCF809178002091790090E0922B08959D
:100B10001F93CF93DF93182FEB0161E00E94100623
:100B2000209711F460E004C0CF3FD10539F461E0B3
:100B3000812FDF91CF911F910C944906E12FF0E0B6
:100B4000E859FF4FE491E330F9F048F4E130B9F0AF
:100B5000E230A1F584B5806284BDC8BD34C0E73001
:100B6000E9F0E83019F1E43049F5809180008062C5
:100B700080938000D0938B00C0938A0024C084B5FA
:100B8000806884BDC7BD1FC080918000806880934D
:100B90008000D0938900C093880015C08091B00078
:100BA00080688093B000C093B3000DC08091B00006
:100BB00080628093B000C093B40005C0C038D105F6
:100BC0000CF0B5CFAFCFDF91CF911F910895833057
:100BD00081F028F4813099F08230A1F008958730B7
:100BE000A9F08830B9F08430D1F4809180008F7DF5
:100BF00003C0809180008F7780938000089584B532
:100C00008F7702C084B58F7D84BD08958091B00038
:100C10008F7703C08091B0008F7D8093B0000895DE
:100C2000CF93DF9390E0FC01E458FF4F2491FC0147
:100C3000E057FF4F8491882349F190E0880F991F76
:100C4000FC01E854FF4FA591B49182559F4FFC01E0
:100C5000C591D4919FB7611108C0F8948C912095EB
:100C600082238C93888182230AC0623051F4F894E5
:100C70008C91322F309583238C938881822B8883AB
:100C800004C0F8948C91822B8C939FBFDF91CF91FD
:100C900008950F931F93CF93DF931F92CDB7DEB7C5
:100CA000282F30E0F901E859FF4F8491F901E45809
:100CB000FF4F1491F901E057FF4F04910023C9F051
:100CC000882321F069830E94E7056981E02FF0E025
:100CD000EE0FFF1FE255FF4FA591B4919FB7F89417
:100CE0008C91611103C01095812301C0812B8C93DD
:100CF0009FBF0F90DF91CF911F910F9108950F9398
:100D00001F93762F90E0FC01E458FF4F6491FC01A3
:100D1000E057FF4FE4917111762FF0E0EE0FFF1FC7
:100D2000EC55FF4F8591949189019A013F70472FAF
:100D30000E948D00611571058105910531F06F5F8D
:100D40007F4F8F4F9F4F9F7003C060E070E0CB01DB
:100D50001F910F910895FC01818D228D90E0805CA0
:100D60009F4F821B91098F7399270895FC01918DE4
:100D7000828D981731F0828DE80FF11D858D90E0FE
:100D800008958FEF9FEF0895FC01918D828D981744
:100D900061F0828DDF01A80FB11D5D968C91928D5F
:100DA0009F5F9F73928F90E008958FEF9FEF08955C
:100DB00088E498E0892B49F080E090E0892B29F0C5
:100DC0000E94480881110C9400000895FC01848D54
:100DD000DF01A80FB11DA35ABF4F2C91848D90E065
:100DE00001968F739927848FA689B7892C93A08940
:100DF000B1898C9180648C93938D848D981306C0F7
:100E00000288F389E02D80818F7D80830895CF93C0
:100E1000DF93EC01888D8823C9F0EA89FB89808102
:100E200085FD05C0A889B9898C9186FD0FC00FB6D4
:100E300007FCF5CF808185FFF2CFA889B9898C9115
:100E400085FFEDCFCE010E94E606E7CFDF91CF917F
:100E50000895CF92DF92FF920F931F93CF93DF936A
:100E60001F92CDB7DEB76C0181E0D60158968C9306
:100E700058975B969C915B975C968C915C979813C6
:100E800007C05096ED91FC915197808185FD2EC051
:100E9000F601038D10E00F5F1F4F0F731127F02E27
:100EA000F601848DF81211C00FB607FCF9CFD601F8
:100EB0005096ED91FC915197808185FFF1CFC6014D
:100EC00069830E94E6066981EBCF838DE80FF11DEF
:100ED000E35AFF4F6083D6015B960C935B97529663
:100EE000ED91FC915397808180620CC0D60156969B
:100EF000ED91FC91579760835096ED91FC9151973D
:100F000080818064808381E090E00F90DF91CF91B9
:100F10001F910F91FF90DF90CF900895BF92CF92D5
:100F2000DF92EF92FF92CF93DF93EC016A017B0196
:100F3000B22EE889F98982E08083411581EE580755
:100F400061057105A1F060E079E08DE390E0A70113
:100F500096010E94D60A215031094109510956953E
:100F6000479537952795211580E1380798F0E8894E
:100F7000F989108260E874E88EE190E0A70196019B
:100F80000E94D60A215031094109510956954795C9
:100F900037952795EC85FD853083EE85FF85208389
:100FA000188EEC89FD89B082EA89FB898081806195
:100FB0008083EA89FB89808188608083EA89FB8954
:100FC000808180688083EA89FB8980818F7D80832E
:100FD000DF91CF91FF90EF90DF90CF90BF90089579
:100FE0001F920F920FB60F9211242F938F939F93FE
:100FF000EF93FF93E091CC01F091CD018081E091DE
:10100000D201F091D30182FD12C090818091D5016F
:101010008F5F8F732091D601821751F0E091D50137
:10102000F0E0E454FE4F958F8093D50101C080819C
:10103000FF91EF919F918F912F910F900FBE0F9085
:101040001F9018951F920F920FB60F9211242F9395
:101050003F934F935F936F937F938F939F93AF9340
:10106000BF93EF93FF938CEB91E00E94E606FF9114
:10107000EF91BF91AF919F918F917F916F915F9110
:101080004F913F912F910F900FBE0F901F90189589
:101090008CEB91E00E94AB0621E0892B09F420E063
:1010A000822F08951092BF011092BE0188EE93E046
:1010B000A0E0B0E08093C0019093C101A093C20171
:1010C000B093C30184E891E09093BD018093BC018B
:1010D00085EC90E09093C9018093C80184EC90E086
:1010E0009093CB018093CA0180EC90E09093CD0166
:1010F0008093CC0181EC90E09093CF018093CE015E
:1011000082EC90E09093D1018093D00186EC90E046
:101110009093D3018093D2011092D5011092D60101
:101120001092D7011092D8010895CF92DF92EF92DA
:10113000FF920F931F93CF93DF937C016A01EB0122
:1011400000E010E00C151D0571F06991D701ED91DB
:10115000FC910190F081E02DC7010995892B19F0D0
:101160000F5F1F4FEFCFC801DF91CF911F910F91FC
:10117000FF90EF90DF90CF9008956115710581F099
:10118000DB010D900020E9F7AD0141505109461BEC
:10119000570BDC01ED91FC910280F381E02D099465
:1011A00080E090E008950C94BD08DC01ED91FC9185
:1011B0000190F081E02D099460E971E00C94BD0884
:1011C0000F931F93CF93DF93EC010E94BD088C0116
:1011D000CE010E94DC08800F911FDF91CF911F91FB
:1011E0000F9108958F929F92AF92BF92DF92EF92EC
:1011F000FF920F931F93CF93DF93CDB7DEB7A197E5
:101200000FB6F894DEBF0FBECDBF7C01F42FD52EF4
:10121000CB0119A2223008F42AE08E010F5D1F4F86
:10122000822E912CA12CB12C6F2F7D2DA501940124
:101230000E94D60AF22FD32ECA01015011096A303A
:1012400014F4E0E301C0E7E3E60FD801EC93232BAD
:10125000242B252B49F7B801C7010E94BD08A19690
:101260000FB6F894DEBF0FBECDBFDF91CF911F91B7
:101270000F91FF90EF90DF90BF90AF909F908F9075
:101280000895CF92DF92EF92FF920F931F93CF9327
:10129000DF93EC016A017B012115310579F4E881C6
:1012A000F9810190F081E02D642FDF91CF911F91A2
:1012B0000F91FF90EF90DF90CF9009942A30310585
:1012C000E9F477FF1AC06DE20E94D5088C0144272B
:1012D0005527BA014C195D096E097F092AE0CE0134
:1012E0000E94F208800F911FDF91CF911F910F9103
:1012F000FF90EF90DF90CF9008952AE0B701A6010C
:10130000CE01DF91CF911F910F91FF90EF90DF9071
:10131000CF900C94F2080F931F93CF93DF93EC01BF
:101320009A01AB01662757FD6095762F0E9441090F
:101330008C01CE010E94DC08800F911FDF91CF91BC
:101340001F910F91089508950E9430050E94A309EE
:101350000E94D200C8EDD6E00E94B3022097E1F3CC
:101360000E94D806F9CF089504D06894B111B5C091
:10137000089598D088F09F5790F0B92F9927B751CA
:10138000A0F0D1F0660F771F881F991F1AF0BA9549
:10139000C9F712C0B13081F09FD0B1E008959CC070
:1013A000672F782F8827B85F39F0B93FCCF386953F
:1013B00077956795B395D9F73EF49095809570959C
:1013C00061957F4F8F4F9F4F0895E89409C097FB19
:1013D0003EF490958095709561957F4F8F4F9F4F0C
:1013E0009923A9F0F92F96E9BB279395F695879550
:1013F00077956795B795F111F8CFFAF4BB0F11F413
:1014000060FF1BC06F5F7F4F8F4F9F4F16C08823B9
:1014100011F096E911C0772321F09EE8872F762FEF
:1014200005C0662371F096E8862F70E060E02AF030
:101430009A95660F771F881FDAF7880F969587951C
:1014400097F9089597F99F6780E870E060E0089544
:101450009FEF80EC089500240A94161617061806CC
:101460000906089500240A941216130614060506A8
:101470000895092E0394000C11F4882352F0BB0F39
:1014800040F4BF2B11F460FF04C06F5F7F4F8F4F9C
:101490009F4F089557FD9058440F551F59F05F3FD7
:1014A00071F04795880F97FB991F61F09F3F79F086
:1014B00087950895121613061406551FF2CF469508
:1014C000F1DF08C0161617061806991FF1CF86958A
:1014D0007105610508940895E894BB27662777276E
:1014E000CB0197F908950BD0C4CFB5DF28F0BADF50
:1014F00018F0952309F0A6CFABCF1124EECFCADFA9
:10150000A0F3959FD1F3950F50E0551F629FF00116
:10151000729FBB27F00DB11D639FAA27F00DB11D6F
:10152000AA1F649F6627B00DA11D661F829F2227F8
:10153000B00DA11D621F739FB00DA11D621F839F7F
:10154000A00D611D221F749F3327A00D611D231F55
:10155000849F600D211D822F762F6A2F11249F57A3
:1015600050408AF0E1F088234AF0EE0FFF1FBB1FC6
:10157000661F771F881F91505040A9F79E3F510565
:1015800070F060CFAACF5F3FECF3983EDCF3869516
:1015900077956795B795F795E7959F5FC1F7FE2B10
:1015A000880F911D9695879597F90895A1E21A2EB7
:1015B000AA1BBB1BFD010DC0AA1FBB1FEE1FFF1FF7
:1015C000A217B307E407F50720F0A21BB30BE40B47
:1015D000F50B661F771F881F991F1A9469F760958E
:1015E0007095809590959B01AC01BD01CF01089548
:1015F000EE0FFF1F0590F491E02D0994F894FFCFB2
:10160000E8039001B400FF0003000500020002009F
:101610000D0001464646464646005252525252522C
:101620005252004C4C4C4C4C4C4C4C4C4C4C00458D
:10163000454545454545313131313131310045452B
:1016400045454545454545453232323232323232E2
:1016500032004545454545454545333333333333FE
:10166000333333330044697374616E63653A200029
:101670006C20200063202000722020006274200073
:101680000000000029079508AB06C406B606070748
:101690000D0A006E616E00696E66006F7666002E40
:0216A000000048
:107E0000112484B714BE81FFF0D085E080938100F7
:107E100082E08093C00088E18093C10086E0809377
:107E2000C20080E18093C4008EE0C9D0259A86E02C
:107E300020E33CEF91E0309385002093840096BBD3
:107E4000B09BFECF1D9AA8958150A9F7CC24DD24C4
:107E500088248394B5E0AB2EA1E19A2EF3E0BF2EE7
:107E6000A2D0813461F49FD0082FAFD0023811F036
:107E7000013811F484E001C083E08DD089C08234E0
:107E800011F484E103C0853419F485E0A6D080C0E4
:107E9000853579F488D0E82EFF2485D0082F10E0AE
:107EA000102F00270E291F29000F111F8ED06801E7
:107EB0006FC0863521F484E090D080E0DECF843638
:107EC00009F040C070D06FD0082F6DD080E0C81688
:107ED00080E7D80618F4F601B7BEE895C0E0D1E017
:107EE00062D089930C17E1F7F0E0CF16F0E7DF06D8
:107EF00018F0F601B7BEE89568D007B600FCFDCFD4
:107F0000A601A0E0B1E02C9130E011968C91119780
:107F100090E0982F8827822B932B1296FA010C0160
:107F200087BEE89511244E5F5F4FF1E0A038BF0790
:107F300051F7F601A7BEE89507B600FCFDCF97BE46
:107F4000E89526C08437B1F42ED02DD0F82E2BD052
:107F50003CD0F601EF2C8F010F5F1F4F84911BD097
:107F6000EA94F801C1F70894C11CD11CFA94CF0C13
:107F7000D11C0EC0853739F428D08EE10CD085E9AC
:107F80000AD08FE07ACF813511F488E018D01DD067
:107F900080E101D065CF982F8091C00085FFFCCF94
:107FA0009093C60008958091C00087FFFCCF809118
:107FB000C00084FD01C0A8958091C6000895E0E648
:107FC000F0E098E1908380830895EDDF803219F02E
:107FD00088E0F5DFFFCF84E1DECF1F93182FE3DFCA
:107FE0001150E9F7F2DF1F91089580E0E8DFEE27F6
:047FF000FF270994CA
:027FFE00040479
:0400000300007E007B
:00000001FF
