:100000000C9462000C948A000C948A000C948A0070
:100010000C948A000C948A000C948A000C948A0038
:100020000C948A000C948A000C948A000C948A0028
:100030000C948A000C948A000C948A000C948A0018
:100040000C9461020C948A000C94D1020C94AB02C3
:100050000C948A000C948A000C948A000C948A00F8
:100060000C948A000C948A000000000024002700F1
:100070002A0000000000250028002B0000000000DE
:1000800023002600290004040404040404040202DA
:100090000202020203030303030301020408102007
:1000A0004080010204081020010204081020000012
:1000B0000008000201000003040700000000000027
:1000C0000000180411241FBECFEFD8E0DEBFCDBF63
:1000D00011E0A0E0B1E0EAEEFBE002C005900D9275
:1000E000AC32B107D9F721E0ACE2B1E001C01D921A
:1000F000A83DB207E1F710E0C2E6D0E004C02197C6
:10010000FE010E94E805C136D107C9F70E9403032A
:100110000C94F3050C940000CF92DF92EF92FF92C3
:100120000F931F93CF93DF936C017A018B01C0E093
:10013000D0E0CE15DF0589F0D8016D918D01D60193
:10014000ED91FC910190F081E02DC6010995892B7C
:1001500011F47E0102C02196ECCFC701DF91CF914F
:100160001F910F91FF90EF90DF90CF900895089529
:1001700080E090E00895FC01538D448D252F30E000
:10018000842F90E0821B930B541710F0CF960895A4
:1001900001970895FC01918D828D981761F0828DF1
:1001A000DF01A80FB11D5D968C91928D9F5F9F73AB
:1001B000928F90E008958FEF9FEF0895FC01918D4D
:1001C000828D981731F0828DE80FF11D858D90E0BA
:1001D00008958FEF9FEF0895FC01918D228D892F57
:1001E00090E0805C9F4F821B91098F73992708953F
:1001F0008CE291E00E94EC0021E0892B09F420E0E0
:10020000822F0895FC01848DDF01A80FB11DA35A30
:10021000BF4F2C91848D90E001968F739927848F26
:10022000A689B7892C93A089B1898C9180648C931D
:10023000938D848D981306C00288F389E02D808108
:100240008F7D80830895EF92FF920F931F93CF933A
:10025000DF93EC0181E0888F9B8D8C8D981305C016
:10026000E889F989808185FD24C0F62E0B8D10E088
:100270000F5F1F4F0F731127E02E8C8DE8120CC0FB
:100280000FB607FCFACFE889F989808185FFF5CFA1
:10029000CE010E940201F1CF8B8DFE01E80FF11D0E
:1002A000E35AFF4FF0820B8FEA89FB8980818062DD
:1002B00007C0EE89FF896083E889F98980818064BD
:1002C000808381E090E0DF91CF911F910F91FF90AB
:1002D000EF900895CF93DF93EC01888D8823C9F0C8
:1002E000EA89FB89808185FD05C0A889B9898C913F
:1002F00086FD0FC00FB607FCF5CF808185FFF2CFDA
:10030000A889B9898C9185FFEDCFCE010E940201A9
:10031000E7CFDF91CF91089580E090E0892B29F01D
:100320000E94F80081110C9400000895833081F040
:1003300028F4813099F08230A1F008958730A9F037
:100340008830B9F08430D1F4809180008F7D03C073
:10035000809180008F7780938000089584B58F7797
:1003600002C084B58F7D84BD08958091B0008F77E1
:1003700003C08091B0008F7D8093B0000895CF932B
:10038000DF93E2EBF0E08491EEE9F0E0D491EAE86B
:10039000F0E0C491CC2391F081110E949601EC2FE2
:1003A000F0E0EE0FFF1FE458FF4FA591B491EC91E0
:1003B000ED2381E090E021F480E002C080E090E055
:1003C000DF91CF9108951F93CF93DF93282F30E0D3
:1003D000F901E255FF4F8491F901E656FF4FD491A0
:1003E000F901EA57FF4FC491CC23C9F0162F8111B0
:1003F0000E949601EC2FF0E0EE0FFF1FEE58FF4F2A
:10040000A591B4918FB7F894111105C09C91ED2F6F
:10041000E095E92302C0EC91ED2BEC938FBFDF91C7
:10042000CF911F910895CF93DF9390E0FC01E656A2
:10043000FF4F2491FC01EA57FF4F8491882361F11B
:1004400090E0880F991FFC01E859FF4FC591D491A6
:10045000FC01EE58FF4FA591B491611109C09FB7FF
:10046000F8948881209582238883EC912E230BC0F9
:10047000623061F49FB7F8943881822F809583238E
:100480008883EC912E2B2C939FBF06C08FB7F894D6
:10049000E8812E2B28838FBFDF91CF91089561E0F3
:1004A00088E00E94E30160E089E00E94E30161E0EE
:1004B0008AE00E94E30160E08BE00C94E3010E947B
:1004C000EE051F920F920FB60F9211242F933F93B8
:1004D0008F939F93AF93BF938091D4019091D50157
:1004E000A091D601B091D7013091D30123E0230F21
:1004F0002D3720F40196A11DB11D05C026E8230F5C
:100500000296A11DB11D2093D3018093D401909335
:10051000D501A093D601B093D7018091CF019091DE
:10052000D001A091D101B091D2010196A11DB11DC0
:100530008093CF019093D001A093D101B093D201C9
:10054000BF91AF919F918F913F912F910F900FBECF
:100550000F901F9018951F920F920FB60F921124B3
:100560002F933F934F935F936F937F938F939F93BB
:10057000AF93BF93EF93FF938CE291E00E9402014F
:10058000FF91EF91BF91AF919F918F917F916F916B
:100590005F914F913F912F910F900FBE0F901F9041
:1005A00018951F920F920FB60F9211242F938F93CD
:1005B0009F93EF93FF93E0913C01F0913D01808187
:1005C000E0914201F091430182FD12C0908180913F
:1005D00045018F5F8F7320914601821751F0E091A2
:1005E0004501F0E0E45DFE4F958F8093450101C029
:1005F0008081FF91EF919F918F912F910F900FBE6E
:100600000F901F901895789484B5826084BD84B54E
:10061000816084BD85B5826085BD85B5816085BDFD
:1006200080916E00816080936E00109281008091B5
:10063000810082608093810080918100816080933D
:100640008100809180008160809380008091B10062
:1006500084608093B1008091B00081608093B0008D
:1006600080917A00846080937A0080917A00826021
:1006700080937A0080917A00816080937A008091E3
:100680007A00806880937A001092C10061E088E06F
:100690000E94130261E089E00E94130261E08AE097
:1006A0000E94130261E08BE00E941302E0913C0182
:1006B000F0913D0182E08083E0913801F0913901B1
:1006C0001082E0913A01F0913B018FEC808310920F
:1006D0004401E0914001F091410186E08083E09186
:1006E0003E01F0913F01808180618083E0913E0175
:1006F000F0913F01808188608083E0913E01F0911C
:100700003F01808180688083E0913E01F0913F014C
:1007100080818F7D808345E150E062E171E08CE271
:1007200091E00E948C0042E050E068E271E08CE2CF
:1007300091E00E948C0060E084E00E941302C0E41B
:100740000E94BF01892B81F00E94BF01892B19F003
:100750000E944F02F9CF8091CD019091CE01019678
:100760009093CE018093CD01C0937C0080917A005C
:10077000806480937A0080917A0086FDFCCF60913E
:1007800078008091790070E0782B7093CC016093B1
:10079000CB01072E000C880B990B0E94EF0420E080
:1007A00030E446E654E40E94450420E030E04CE8A2
:1007B00052E40E947B050E94B7047093CA016093C3
:1007C000C9016331710554F460E088E00E94E301DF
:1007D00061E089E00E94E30161E020C065337105BA
:1007E0001CF40E944F0221C06734710574F461E06B
:1007F00088E00E94E30160E089E00E94E30160E09C
:100800008AE00E94E30161E00DC060E088E00E94A0
:10081000E30160E089E00E94E30160E08AE00E9479
:10082000E30160E08BE00E94E3010E948C0188CF2D
:10083000ECE2F1E01382128288EE93E0A0E0B0E0F7
:1008400084839583A683B78384E091E0918380833A
:1008500085EC90E09587848784EC90E09787868785
:1008600080EC90E0918B808B81EC90E0938B828B7D
:1008700082EC90E0958B848B86EC90E0978B868B56
:10088000118E128E138E148E08950E9459040C94AA
:1008900041050E943A0558F00E94330540F029F4C2
:1008A0005F3F29F00C942A0551110C9475050C94A6
:1008B00030050E94520568F39923B1F3552391F353
:1008C000951B550BBB27AA2762177307840738F0BF
:1008D0009F5F5F4F220F331F441FAA1FA9F335D01C
:1008E0000E2E3AF0E0E832D091505040E695001CD0
:1008F000CAF72BD0FE2F29D0660F771F881FBB1F8A
:10090000261737074807AB07B0E809F0BB0B802D67
:10091000BF01FF2793585F4F3AF09E3F510578F093
:100920000C942A050C9475055F3FE4F3983ED4F3CC
:10093000869577956795B795F7959F5FC9F7880F67
:10094000911D9695879597F90895E1E0660F771FB9
:10095000881FBB1F621773078407BA0720F0621B4A
:10096000730B840BBA0BEE1F88F7E09508950E9475
:10097000BE046894B1110C94750508950E945A053F
:1009800088F09F5798F0B92F9927B751B0F0E1F050
:10099000660F771F881F991F1AF0BA95C9F714C000
:1009A000B13091F00E947405B1E008950C94740583
:1009B000672F782F8827B85F39F0B93FCCF3869539
:1009C00077956795B395D9F73EF490958095709596
:1009D00061957F4F8F4F9F4F0895E89409C097FB13
:1009E0003EF490958095709561957F4F8F4F9F4F06
:1009F0009923A9F0F92F96E9BB279395F69587954A
:100A000077956795B795F111F8CFFAF4BB0F11F40C
:100A100060FF1BC06F5F7F4F8F4F9F4F16C08823B3
:100A200011F096E911C0772321F09EE8872F762FE9
:100A300005C0662371F096E8862F70E060E02AF02A
:100A40009A95660F771F881FDAF7880F9695879516
:100A500097F9089597F99F6780E870E060E008953E
:100A60009FEF80EC089500240A94161617061806C6
:100A70000906089500240A941216130614060506A2
:100A80000895092E0394000C11F4882352F0BB0F33
:100A900040F4BF2B11F460FF04C06F5F7F4F8F4F96
:100AA0009F4F089557FD9058440F551F59F05F3FD1
:100AB00071F04795880F97FB991F61F09F3F79F080
:100AC00087950895121613061406551FF2CF469502
:100AD000F1DF08C0161617061806991FF1CF869584
:100AE0007105610508940895E894BB276627772768
:100AF000CB0197F908950E948E050C9441050E9440
:100B0000330538F00E943A0520F0952311F00C943B
:100B10002A050C94300511240C9475050E94520589
:100B200070F3959FC1F3950F50E0551F629FF00140
:100B3000729FBB27F00DB11D639FAA27F00DB11D59
:100B4000AA1F649F6627B00DA11D661F829F2227E2
:100B5000B00DA11D621F739FB00DA11D621F839F69
:100B6000A00D611D221F749F3327A00D611D231F3F
:100B7000849F600D211D822F762F6A2F11249F578D
:100B800050409AF0F1F088234AF0EE0FFF1FBB1F90
:100B9000661F771F881F91505040A9F79E3F51054F
:100BA00080F00C942A050C9475055F3FE4F3983EA1
:100BB000D4F3869577956795B795F795E7959F5FF9
:100BC000C1F7FE2B880F911D9695879597F908958B
:100BD000EE0FFF1F0590F491E02D099481E090E065
:0A0BE000F8940C94F305F894FFCF8D
:100BEA000000000023018C00BB006A01EC00CA006F
:100BFA00DE0049522053656E736F7220526561643C
:0C0C0A00696E67733A3A20000D0A000082
:00000001FF
